{
  "contractName": "StakingEth",
  "abi": [
    {
      "inputs": [
        {
          "internalType": "address",
          "name": "addressToken",
          "type": "address"
        }
      ],
      "stateMutability": "payable",
      "type": "constructor",
      "payable": true
    },
    {
      "anonymous": false,
      "inputs": [
        {
          "indexed": true,
          "internalType": "address",
          "name": "previousOwner",
          "type": "address"
        },
        {
          "indexed": true,
          "internalType": "address",
          "name": "newOwner",
          "type": "address"
        }
      ],
      "name": "OwnershipTransferred",
      "type": "event"
    },
    {
      "anonymous": false,
      "inputs": [
        {
          "indexed": false,
          "internalType": "address",
          "name": "depositAddress",
          "type": "address"
        },
        {
          "indexed": false,
          "internalType": "uint256",
          "name": "amountStake",
          "type": "uint256"
        }
      ],
      "name": "ethDeposit",
      "type": "event"
    },
    {
      "anonymous": false,
      "inputs": [
        {
          "indexed": false,
          "internalType": "address",
          "name": "withdrawAddress",
          "type": "address"
        },
        {
          "indexed": false,
          "internalType": "uint256",
          "name": "amountdestake",
          "type": "uint256"
        }
      ],
      "name": "ethWithdraw",
      "type": "event"
    },
    {
      "anonymous": false,
      "inputs": [],
      "name": "rewardCalculed",
      "type": "event"
    },
    {
      "anonymous": false,
      "inputs": [
        {
          "indexed": false,
          "internalType": "address",
          "name": "from",
          "type": "address"
        },
        {
          "indexed": false,
          "internalType": "uint256",
          "name": "amount",
          "type": "uint256"
        }
      ],
      "name": "rewardWithdraw",
      "type": "event"
    },
    {
      "inputs": [],
      "name": "owner",
      "outputs": [
        {
          "internalType": "address",
          "name": "",
          "type": "address"
        }
      ],
      "stateMutability": "view",
      "type": "function",
      "constant": true
    },
    {
      "inputs": [],
      "name": "renounceOwnership",
      "outputs": [],
      "stateMutability": "nonpayable",
      "type": "function"
    },
    {
      "inputs": [
        {
          "internalType": "address",
          "name": "",
          "type": "address"
        }
      ],
      "name": "stakers",
      "outputs": [
        {
          "internalType": "bool",
          "name": "isStaker",
          "type": "bool"
        },
        {
          "internalType": "bool",
          "name": "rewardCalculed",
          "type": "bool"
        },
        {
          "internalType": "uint256",
          "name": "balance",
          "type": "uint256"
        },
        {
          "internalType": "uint256",
          "name": "myReward",
          "type": "uint256"
        },
        {
          "internalType": "uint256",
          "name": "blockStake",
          "type": "uint256"
        }
      ],
      "stateMutability": "view",
      "type": "function",
      "constant": true
    },
    {
      "inputs": [
        {
          "internalType": "address",
          "name": "newOwner",
          "type": "address"
        }
      ],
      "name": "transferOwnership",
      "outputs": [],
      "stateMutability": "nonpayable",
      "type": "function"
    },
    {
      "stateMutability": "payable",
      "type": "receive",
      "payable": true
    },
    {
      "inputs": [
        {
          "internalType": "address payable",
          "name": "_to",
          "type": "address"
        }
      ],
      "name": "whithdraw",
      "outputs": [],
      "stateMutability": "nonpayable",
      "type": "function"
    },
    {
      "inputs": [],
      "name": "getLatestMyTokenPrice",
      "outputs": [
        {
          "internalType": "int256",
          "name": "",
          "type": "int256"
        }
      ],
      "stateMutability": "view",
      "type": "function",
      "constant": true
    },
    {
      "inputs": [],
      "name": "getLatestEthPrice",
      "outputs": [
        {
          "internalType": "int256",
          "name": "",
          "type": "int256"
        }
      ],
      "stateMutability": "view",
      "type": "function",
      "constant": true
    },
    {
      "inputs": [],
      "name": "calculedReward",
      "outputs": [],
      "stateMutability": "nonpayable",
      "type": "function"
    },
    {
      "inputs": [],
      "name": "viewReward",
      "outputs": [
        {
          "internalType": "uint256",
          "name": "",
          "type": "uint256"
        }
      ],
      "stateMutability": "view",
      "type": "function",
      "constant": true
    },
    {
      "inputs": [],
      "name": "claimReward",
      "outputs": [],
      "stateMutability": "nonpayable",
      "type": "function"
    },
    {
      "inputs": [
        {
          "internalType": "address",
          "name": "appelant",
          "type": "address"
        }
      ],
      "name": "getBalanceStack",
      "outputs": [
        {
          "internalType": "uint256",
          "name": "",
          "type": "uint256"
        }
      ],
      "stateMutability": "view",
      "type": "function",
      "constant": true
    }
  ],
  "bytecode": "0x6080604052601e60045560405162001cf438038062001cf483398181016040528101906200002e9190620001ce565b6200004e62000042620000eb60201b60201c565b620000f360201b60201c565b80600260006101000a81548173ffffffffffffffffffffffffffffffffffffffff021916908373ffffffffffffffffffffffffffffffffffffffff160217905550739326bfa02add2366b30bacb125260af641031331600160006101000a81548173ffffffffffffffffffffffffffffffffffffffff021916908373ffffffffffffffffffffffffffffffffffffffff1602179055505062000248565b600033905090565b60008060009054906101000a900473ffffffffffffffffffffffffffffffffffffffff169050816000806101000a81548173ffffffffffffffffffffffffffffffffffffffff021916908373ffffffffffffffffffffffffffffffffffffffff1602179055508173ffffffffffffffffffffffffffffffffffffffff168173ffffffffffffffffffffffffffffffffffffffff167f8be0079c531659141344cd1fd0a4f28419497f9722a3daafe3b4186f6b6457e060405160405180910390a35050565b600081519050620001c8816200022e565b92915050565b600060208284031215620001e157600080fd5b6000620001f184828501620001b7565b91505092915050565b600062000207826200020e565b9050919050565b600073ffffffffffffffffffffffffffffffffffffffff82169050919050565b6200023981620001fa565b81146200024557600080fd5b50565b611a9c80620002586000396000f3fe6080604052600436106100a05760003560e01c80637c01f25c116100645780637c01f25c146103805780638ac04358146103bd5780638da5cb5b146103e65780639168ae7214610411578063b88a802f14610452578063f2fde38b14610469576102cc565b806325b0098d146102d157806330c0b9ec146102e857806334f2015d14610313578063715018a61461033e578063766613a214610355576102cc565b366102cc5760001515600360003373ffffffffffffffffffffffffffffffffffffffff1673ffffffffffffffffffffffffffffffffffffffff16815260200190815260200160002060000160009054906101000a900460ff1615151461013b576040517f08c379a000000000000000000000000000000000000000000000000000000000815260040161013290611626565b60405180910390fd5b42600360003373ffffffffffffffffffffffffffffffffffffffff1673ffffffffffffffffffffffffffffffffffffffff168152602001908152602001600020600301819055506001600360003373ffffffffffffffffffffffffffffffffffffffff1673ffffffffffffffffffffffffffffffffffffffff16815260200190815260200160002060000160006101000a81548160ff02191690831515021790555034600360003373ffffffffffffffffffffffffffffffffffffffff1673ffffffffffffffffffffffffffffffffffffffff168152602001908152602001600020600101600082825461022f9190611692565b925050819055506000600360003373ffffffffffffffffffffffffffffffffffffffff1673ffffffffffffffffffffffffffffffffffffffff16815260200190815260200160002060000160016101000a81548160ff0219169083151502179055507f7525d1faf5294223f8142421b1f6a8f34a58c688e5fa7768e327346bcf8132a833346040516102c292919061152f565b60405180910390a1005b600080fd5b3480156102dd57600080fd5b506102e6610492565b005b3480156102f457600080fd5b506102fd6106a7565b60405161030a91906115ab565b60405180910390f35b34801561031f57600080fd5b50610328610765565b6040516103359190611666565b60405180910390f35b34801561034a57600080fd5b506103536107af565b005b34801561036157600080fd5b5061036a610837565b60405161037791906115ab565b60405180910390f35b34801561038c57600080fd5b506103a760048036038101906103a291906111d6565b610908565b6040516103b49190611666565b60405180910390f35b3480156103c957600080fd5b506103e460048036038101906103df91906111ff565b610954565b005b3480156103f257600080fd5b506103fb610c13565b60405161040891906114eb565b60405180910390f35b34801561041d57600080fd5b50610438600480360381019061043391906111d6565b610c3c565b604051610449959493929190611558565b60405180910390f35b34801561045e57600080fd5b50610467610c8c565b005b34801561047557600080fd5b50610490600480360381019061048b91906111d6565b610f94565b005b60011515600360003373ffffffffffffffffffffffffffffffffffffffff1673ffffffffffffffffffffffffffffffffffffffff16815260200190815260200160002060000160009054906101000a900460ff161515146104f257600080fd5b6000600360003373ffffffffffffffffffffffffffffffffffffffff1673ffffffffffffffffffffffffffffffffffffffff1681526020019081526020016000206003015442610542919061189a565b90506000600454826105549190611752565b90506000600360003373ffffffffffffffffffffffffffffffffffffffff1673ffffffffffffffffffffffffffffffffffffffff1681526020019081526020016000206001015490506000610bb8826105ad91906116e8565b9050600083826105bd9190611783565b905060006103e8826105cf9190611783565b905080600360003373ffffffffffffffffffffffffffffffffffffffff1673ffffffffffffffffffffffffffffffffffffffff168152602001908152602001600020600201819055506001600360003373ffffffffffffffffffffffffffffffffffffffff1673ffffffffffffffffffffffffffffffffffffffff16815260200190815260200160002060000160016101000a81548160ff0219169083151502179055507f44115789f6f29b85f052843cc05ab8834d9ade0d2f729153e69841fe80411dc260405160405180910390a1505050505050565b600080600080600080600160009054906101000a900473ffffffffffffffffffffffffffffffffffffffff1673ffffffffffffffffffffffffffffffffffffffff1663feaf968c6040518163ffffffff1660e01b815260040160a06040518083038186803b15801561071857600080fd5b505afa15801561072c573d6000803e3d6000fd5b505050506040513d601f19601f820116820180604052508101906107509190611251565b94509450945094509450839550505050505090565b6000600360003373ffffffffffffffffffffffffffffffffffffffff1673ffffffffffffffffffffffffffffffffffffffff16815260200190815260200160002060020154905090565b6107b761108c565b73ffffffffffffffffffffffffffffffffffffffff166107d5610c13565b73ffffffffffffffffffffffffffffffffffffffff161461082b576040517f08c379a000000000000000000000000000000000000000000000000000000000815260040161082290611646565b60405180910390fd5b6108356000611094565b565b600080600080600080600160009054906101000a900473ffffffffffffffffffffffffffffffffffffffff1673ffffffffffffffffffffffffffffffffffffffff1663feaf968c6040518163ffffffff1660e01b815260040160a06040518083038186803b1580156108a857600080fd5b505afa1580156108bc573d6000803e3d6000fd5b505050506040513d601f19601f820116820180604052508101906108e09190611251565b9450945094509450945060006103e8856108fa91906116e8565b905080965050505050505090565b6000600360008373ffffffffffffffffffffffffffffffffffffffff1673ffffffffffffffffffffffffffffffffffffffff168152602001908152602001600020600101549050919050565b60011515600360003373ffffffffffffffffffffffffffffffffffffffff1673ffffffffffffffffffffffffffffffffffffffff16815260200190815260200160002060000160009054906101000a900460ff161515146109ea576040517f08c379a00000000000000000000000000000000000000000000000000000000081526004016109e190611606565b60405180910390fd5b60011515600360003373ffffffffffffffffffffffffffffffffffffffff1673ffffffffffffffffffffffffffffffffffffffff16815260200190815260200160002060000160019054906101000a900460ff16151514610a4a57600080fd5b6000600360003373ffffffffffffffffffffffffffffffffffffffff1673ffffffffffffffffffffffffffffffffffffffff1681526020019081526020016000206001015490508173ffffffffffffffffffffffffffffffffffffffff166108fc829081150290604051600060405180830381858888f19350505050158015610ad7573d6000803e3d6000fd5b506000600360003373ffffffffffffffffffffffffffffffffffffffff1673ffffffffffffffffffffffffffffffffffffffff168152602001908152602001600020600101819055506000600360003373ffffffffffffffffffffffffffffffffffffffff1673ffffffffffffffffffffffffffffffffffffffff16815260200190815260200160002060000160016101000a81548160ff0219169083151502179055506000600360003373ffffffffffffffffffffffffffffffffffffffff1673ffffffffffffffffffffffffffffffffffffffff16815260200190815260200160002060000160006101000a81548160ff0219169083151502179055507fcb1d3afd61659c02e4f7de0508119d691503e7e57b3908f10756f68d1407233b8282604051610c07929190611506565b60405180910390a15050565b60008060009054906101000a900473ffffffffffffffffffffffffffffffffffffffff16905090565b60036020528060005260406000206000915090508060000160009054906101000a900460ff16908060000160019054906101000a900460ff16908060010154908060020154908060030154905085565b6000600360003373ffffffffffffffffffffffffffffffffffffffff1673ffffffffffffffffffffffffffffffffffffffff168152602001908152602001600020600201541415610d12576040517f08c379a0000000000000000000000000000000000000000000000000000000008152600401610d09906115c6565b60405180910390fd5b60011515600360003373ffffffffffffffffffffffffffffffffffffffff1673ffffffffffffffffffffffffffffffffffffffff16815260200190815260200160002060000160009054906101000a900460ff16151514610d7257600080fd5b60011515600360003373ffffffffffffffffffffffffffffffffffffffff1673ffffffffffffffffffffffffffffffffffffffff16815260200190815260200160002060000160019054906101000a900460ff16151514610dd257600080fd5b6000600360003373ffffffffffffffffffffffffffffffffffffffff1673ffffffffffffffffffffffffffffffffffffffff168152602001908152602001600020600201549050600260009054906101000a900473ffffffffffffffffffffffffffffffffffffffff1673ffffffffffffffffffffffffffffffffffffffff1663a9059cbb33836040518363ffffffff1660e01b8152600401610e7692919061152f565b602060405180830381600087803b158015610e9057600080fd5b505af1158015610ea4573d6000803e3d6000fd5b505050506040513d601f19601f82011682018060405250810190610ec89190611228565b507f18e31e7ff18e2ebe3fcc65261b55b8bcfc905baa8757376de65b6a4dd1a0671a3382604051610efa92919061152f565b60405180910390a16000600360003373ffffffffffffffffffffffffffffffffffffffff1673ffffffffffffffffffffffffffffffffffffffff1681526020019081526020016000206002018190555042600360003373ffffffffffffffffffffffffffffffffffffffff1673ffffffffffffffffffffffffffffffffffffffff1681526020019081526020016000206003018190555050565b610f9c61108c565b73ffffffffffffffffffffffffffffffffffffffff16610fba610c13565b73ffffffffffffffffffffffffffffffffffffffff1614611010576040517f08c379a000000000000000000000000000000000000000000000000000000000815260040161100790611646565b60405180910390fd5b600073ffffffffffffffffffffffffffffffffffffffff168173ffffffffffffffffffffffffffffffffffffffff161415611080576040517f08c379a0000000000000000000000000000000000000000000000000000000008152600401611077906115e6565b60405180910390fd5b61108981611094565b50565b600033905090565b60008060009054906101000a900473ffffffffffffffffffffffffffffffffffffffff169050816000806101000a81548173ffffffffffffffffffffffffffffffffffffffff021916908373ffffffffffffffffffffffffffffffffffffffff1602179055508173ffffffffffffffffffffffffffffffffffffffff168173ffffffffffffffffffffffffffffffffffffffff167f8be0079c531659141344cd1fd0a4f28419497f9722a3daafe3b4186f6b6457e060405160405180910390a35050565b600081359050611167816119dc565b92915050565b60008135905061117c816119f3565b92915050565b60008151905061119181611a0a565b92915050565b6000815190506111a681611a21565b92915050565b6000815190506111bb81611a38565b92915050565b6000815190506111d081611a4f565b92915050565b6000602082840312156111e857600080fd5b60006111f684828501611158565b91505092915050565b60006020828403121561121157600080fd5b600061121f8482850161116d565b91505092915050565b60006020828403121561123a57600080fd5b600061124884828501611182565b91505092915050565b600080600080600060a0868803121561126957600080fd5b6000611277888289016111c1565b955050602061128888828901611197565b9450506040611299888289016111ac565b93505060606112aa888289016111ac565b92505060806112bb888289016111c1565b9150509295509295909350565b6112d181611948565b82525050565b6112e0816118ce565b82525050565b6112ef816118f2565b82525050565b6112fe816118fe565b82525050565b6000611311603583611681565b91507f566f7573206e276176657a20706173206465207265636f6d70656e736520706f60008301527f7572206361205374616b652064657320746f6b656e00000000000000000000006020830152604082019050919050565b6000611377602683611681565b91507f4f776e61626c653a206e6577206f776e657220697320746865207a65726f206160008301527f64647265737300000000000000000000000000000000000000000000000000006020830152604082019050919050565b60006113dd603783611681565b91507f566f7573206465766169732061766f6972205374616b6572206465732045746860008301527f20706f757220706f75766f6972207768697468647261770000000000000000006020830152604082019050919050565b6000611443603f83611681565b91507f566f7573206e6520646576616973207061732061766f69722064656a6120737460008301527f61636b6572206465732065746820706f757220706f757220737461636b6572006020830152604082019050919050565b60006114a9602083611681565b91507f4f776e61626c653a2063616c6c6572206973206e6f7420746865206f776e65726000830152602082019050919050565b6114e581611928565b82525050565b600060208201905061150060008301846112d7565b92915050565b600060408201905061151b60008301856112c8565b61152860208301846114dc565b9392505050565b600060408201905061154460008301856112d7565b61155160208301846114dc565b9392505050565b600060a08201905061156d60008301886112e6565b61157a60208301876112e6565b61158760408301866114dc565b61159460608301856114dc565b6115a160808301846114dc565b9695505050505050565b60006020820190506115c060008301846112f5565b92915050565b600060208201905081810360008301526115df81611304565b9050919050565b600060208201905081810360008301526115ff8161136a565b9050919050565b6000602082019050818103600083015261161f816113d0565b9050919050565b6000602082019050818103600083015261163f81611436565b9050919050565b6000602082019050818103600083015261165f8161149c565b9050919050565b600060208201905061167b60008301846114dc565b92915050565b600082825260208201905092915050565b600061169d82611928565b91506116a883611928565b9250827fffffffffffffffffffffffffffffffffffffffffffffffffffffffffffffffff038211156116dd576116dc61197e565b5b828201905092915050565b60006116f3826118fe565b91506116fe836118fe565b92508261170e5761170d6119ad565b5b600160000383147f8000000000000000000000000000000000000000000000000000000000000000831416156117475761174661197e565b5b828205905092915050565b600061175d82611928565b915061176883611928565b925082611778576117776119ad565b5b828204905092915050565b600061178e826118fe565b9150611799836118fe565b9250827f7fffffffffffffffffffffffffffffffffffffffffffffffffffffffffffffff04821160008413600084131616156117d8576117d761197e565b5b817f800000000000000000000000000000000000000000000000000000000000000005831260008412600084131616156118155761181461197e565b5b827f800000000000000000000000000000000000000000000000000000000000000005821260008413600084121616156118525761185161197e565b5b827f7fffffffffffffffffffffffffffffffffffffffffffffffffffffffffffffff058212600084126000841216161561188f5761188e61197e565b5b828202905092915050565b60006118a582611928565b91506118b083611928565b9250828210156118c3576118c261197e565b5b828203905092915050565b60006118d982611908565b9050919050565b60006118eb82611908565b9050919050565b60008115159050919050565b6000819050919050565b600073ffffffffffffffffffffffffffffffffffffffff82169050919050565b6000819050919050565b600069ffffffffffffffffffff82169050919050565b60006119538261195a565b9050919050565b60006119658261196c565b9050919050565b600061197782611908565b9050919050565b7f4e487b7100000000000000000000000000000000000000000000000000000000600052601160045260246000fd5b7f4e487b7100000000000000000000000000000000000000000000000000000000600052601260045260246000fd5b6119e5816118ce565b81146119f057600080fd5b50565b6119fc816118e0565b8114611a0757600080fd5b50565b611a13816118f2565b8114611a1e57600080fd5b50565b611a2a816118fe565b8114611a3557600080fd5b50565b611a4181611928565b8114611a4c57600080fd5b50565b611a5881611932565b8114611a6357600080fd5b5056fea2646970667358221220fcb24c04cb6a0432c4ea7cf908d47b8768eb4cfca4b78e80d5965f50b74fda8a64736f6c63430008000033",
  "immutableReferences": {},
  "source": "pragma solidity ^0.8.0;\r\n\r\nimport \"../node_modules/@openzeppelin/contracts/token/ERC20/IERC20.sol\";\r\nimport \"../node_modules/@chainlink/contracts/src/v0.8/interfaces/AggregatorV3Interface.sol\";\r\nimport \"../node_modules/@openzeppelin/contracts/access/Ownable.sol\";\r\n\r\n    /// @author Bloodyr\r\n    /// @title Staking eth\r\n    contract StakingEth is Ownable {\r\n      \r\n      AggregatorV3Interface internal priceMyToken;\r\n      IERC20 internal myToken;\r\n      \r\n      ///@notice used to differentiate users\r\n      struct Staker {\r\n        bool isStaker;\r\n        bool rewardCalculed;\r\n        uint balance;\r\n        uint myReward;\r\n        uint blockStake;\r\n      }\r\n\r\n      event ethDeposit(address depositAddress, uint amountStake);\r\n      event ethWithdraw(address withdrawAddress, uint amountdestake);\r\n      event rewardCalculed();\r\n      event rewardWithdraw(address from, uint amount);\r\n\r\n      mapping(address => Staker)public stakers;\r\n      \r\n      int internal timeInterest = 30 ;      \r\n      \r\n      constructor(address addressToken)  payable {\r\n        \r\n        myToken = IERC20(addressToken);\r\n        priceMyToken = AggregatorV3Interface(0x9326BFA02ADD2366b30bacB125260Af641031331);\r\n        \r\n      }\r\n\r\n      ///@notice Reception of eth\r\n      ///dev Check that the reward has already been awarded, Modify user structure, allow sending eth\r\n      receive() external payable {\r\n        require(stakers[msg.sender].isStaker == false, \"Vous ne devais pas avoir deja stacker des eth pour pour stacker\");\r\n        stakers[msg.sender].blockStake = block.timestamp;\r\n        stakers[msg.sender].isStaker = true;\r\n        stakers[msg.sender].balance += msg.value;\r\n        stakers[msg.sender].rewardCalculed = false;\r\n\r\n        emit ethDeposit(msg.sender, msg.value);\r\n      }\r\n      \r\n      ///@notice Withdraw Eth\r\n      ///@dev Require that the user structure be true, set an amount in relation to the balance,\r\n      ///@dev reassign the balance of the balance to 0,\r\n      ///@dev Return the eth to its owner, calculate the reward, send the reward, unify the user structure\r\n      function whithdraw(address payable _to) public {\r\n\r\n        require(stakers[msg.sender].isStaker == true, \"Vous devais avoir Staker des Eth pour pouvoir whithdraw\");\r\n        require(stakers[msg.sender].rewardCalculed == true);\r\n        \r\n        uint _amount = stakers[msg.sender].balance;\r\n        \r\n        \r\n        _to.transfer(_amount);\r\n        \r\n        stakers[msg.sender].balance = 0;\r\n\r\n        stakers[msg.sender].rewardCalculed = false;\r\n        stakers[msg.sender].isStaker = false;\r\n\r\n        emit ethWithdraw(_to, _amount);\r\n    \r\n      }\r\n\r\n      ///@notice return the value of my token\r\n      ///@dev use the oracle chainlink to retrieve the value at time T of the eth\r\n      ///@dev and set the value of my token with a ratio of / 1000\r\n      ///@return Price of my token \r\n      function getLatestMyTokenPrice() public view returns (int) {\r\n        (\r\n            uint80 roundID, \r\n            int price,\r\n            uint startedAt,\r\n            uint timeStamp,\r\n            uint80 answeredInRound\r\n        ) = priceMyToken.latestRoundData();\r\n\r\n        int tokenPrice = price / 1000;\r\n\r\n        return tokenPrice;\r\n    }\r\n\r\n      ///@notice return the value of my token\r\n      ///@dev use the oracle chainlink to retrieve the value at time T of the eth\r\n      function getLatestEthPrice() public view returns (int) {\r\n        (\r\n            uint80 roundID, \r\n            int price,\r\n            uint startedAt,\r\n            uint timeStamp,\r\n            uint80 answeredInRound\r\n        ) = priceMyToken.latestRoundData();\r\n\r\n        return price;\r\n      }\r\n\r\n      ///@notice Calculate the amount of the reward\r\n      ///@dev Calculate the amount of the reward compared to the eth, converted into my token\r\n      function calculedReward() public {\r\n\r\n        require(stakers[msg.sender].isStaker == true); \r\n\r\n        uint time = block.timestamp - stakers[msg.sender].blockStake;\r\n        uint numberOfReward = time / uint(timeInterest);\r\n        int balance = int(stakers[msg.sender].balance);\r\n        int interest = balance / 3000;\r\n        int reward = interest * int(numberOfReward);\r\n        int rewardMyToken = reward * 1000;\r\n\r\n        stakers[msg.sender].myReward = uint(rewardMyToken);\r\n        stakers[msg.sender].rewardCalculed = true;\r\n\r\n        emit rewardCalculed();\r\n      }\r\n\r\n      ///@return Return the accumulated reward word\r\n      function viewReward() public view returns(uint){\r\n\r\n        return stakers[msg.sender].myReward;\r\n\r\n      }\r\n\r\n      function claimReward() public {\r\n\r\n        require(stakers[msg.sender].myReward != 0, \"Vous n'avez pas de recompense pour ca Stake des token\");\r\n        require(stakers[msg.sender].isStaker == true);\r\n        require(stakers[msg.sender].rewardCalculed == true);\r\n        uint reward = stakers[msg.sender].myReward;\r\n\r\n        myToken.transfer(msg.sender, reward); \r\n\r\n        emit rewardWithdraw(msg.sender, reward);\r\n\r\n        stakers[msg.sender].myReward = 0;\r\n        stakers[msg.sender].blockStake = block.timestamp;\r\n      }\r\n\r\n      function getBalanceStack(address appelant) external view returns(uint256){\r\n\r\n         return stakers[appelant].balance;\r\n        \r\n      }\r\n\r\n    }",
  "sourcePath": "C:\\Users\\saive\\staking\\contracts\\StakingEth.sol",
  "compiler": {
    "name": "solc",
    "version": "0.8.0+commit.c7dfd78e.Emscripten.clang"
  },
  "schemaVersion": "3.4.4",
  "updatedAt": "2021-12-22T13:58:30.445Z",
  "networkType": "ethereum",
  "devdoc": {
    "author": "Bloodyr",
    "kind": "dev",
    "methods": {
      "calculedReward()": {
        "details": "Calculate the amount of the reward compared to the eth, converted into my token"
      },
      "getLatestEthPrice()": {
        "details": "use the oracle chainlink to retrieve the value at time T of the eth"
      },
      "getLatestMyTokenPrice()": {
        "details": "use the oracle chainlink to retrieve the value at time T of the ethand set the value of my token with a ratio of / 1000",
        "returns": {
          "_0": "Price of my token "
        }
      },
      "owner()": {
        "details": "Returns the address of the current owner."
      },
      "renounceOwnership()": {
        "details": "Leaves the contract without owner. It will not be possible to call `onlyOwner` functions anymore. Can only be called by the current owner. NOTE: Renouncing ownership will leave the contract without an owner, thereby removing any functionality that is only available to the owner."
      },
      "transferOwnership(address)": {
        "details": "Transfers ownership of the contract to a new account (`newOwner`). Can only be called by the current owner."
      },
      "viewReward()": {
        "returns": {
          "_0": "Return the accumulated reward word"
        }
      },
      "whithdraw(address)": {
        "details": "Require that the user structure be true, set an amount in relation to the balance,reassign the balance of the balance to 0,Return the eth to its owner, calculate the reward, send the reward, unify the user structure"
      }
    },
    "title": "Staking eth",
    "version": 1
  },
  "userdoc": {
    "kind": "user",
    "methods": {
      "calculedReward()": {
        "notice": "Calculate the amount of the reward"
      },
      "getLatestEthPrice()": {
        "notice": "return the value of my token"
      },
      "getLatestMyTokenPrice()": {
        "notice": "return the value of my token"
      },
      "whithdraw(address)": {
        "notice": "Withdraw Eth"
      }
    },
    "version": 1
  }
}